{
  "contractName": "MasterChefV2",
  "abi": [
    {
      "inputs": [
        {
          "internalType": "contract EggToken",
          "name": "_egg",
          "type": "address"
        },
        {
          "internalType": "address",
          "name": "_devaddr",
          "type": "address"
        },
        {
          "internalType": "address",
          "name": "_feeAddress",
          "type": "address"
        },
        {
          "internalType": "uint256",
          "name": "_eggPerBlock",
          "type": "uint256"
        },
        {
          "internalType": "uint256",
          "name": "_startBlock",
          "type": "uint256"
        }
      ],
      "stateMutability": "nonpayable",
      "type": "constructor"
    },
    {
      "anonymous": false,
      "inputs": [
        {
          "indexed": true,
          "internalType": "address",
          "name": "burner",
          "type": "address"
        },
        {
          "indexed": false,
          "internalType": "uint256",
          "name": "value",
          "type": "uint256"
        }
      ],
      "name": "Burn",
      "type": "event"
    },
    {
      "anonymous": false,
      "inputs": [
        {
          "indexed": true,
          "internalType": "address",
          "name": "user",
          "type": "address"
        },
        {
          "indexed": true,
          "internalType": "uint256",
          "name": "pid",
          "type": "uint256"
        },
        {
          "indexed": false,
          "internalType": "uint256",
          "name": "amount",
          "type": "uint256"
        }
      ],
      "name": "Deposit",
      "type": "event"
    },
    {
      "anonymous": false,
      "inputs": [
        {
          "indexed": true,
          "internalType": "address",
          "name": "user",
          "type": "address"
        },
        {
          "indexed": true,
          "internalType": "uint256",
          "name": "pid",
          "type": "uint256"
        },
        {
          "indexed": false,
          "internalType": "uint256",
          "name": "amount",
          "type": "uint256"
        }
      ],
      "name": "EmergencyWithdraw",
      "type": "event"
    },
    {
      "anonymous": false,
      "inputs": [
        {
          "indexed": true,
          "internalType": "address",
          "name": "caller",
          "type": "address"
        },
        {
          "indexed": false,
          "internalType": "uint256",
          "name": "previousAmount",
          "type": "uint256"
        },
        {
          "indexed": false,
          "internalType": "uint256",
          "name": "newAmount",
          "type": "uint256"
        }
      ],
      "name": "EmissionRateUpdated",
      "type": "event"
    },
    {
      "anonymous": false,
      "inputs": [
        {
          "indexed": true,
          "internalType": "address",
          "name": "user",
          "type": "address"
        },
        {
          "indexed": true,
          "internalType": "address",
          "name": "newAddress",
          "type": "address"
        }
      ],
      "name": "SetDevAddress",
      "type": "event"
    },
    {
      "anonymous": false,
      "inputs": [
        {
          "indexed": true,
          "internalType": "address",
          "name": "user",
          "type": "address"
        },
        {
          "indexed": true,
          "internalType": "address",
          "name": "newAddress",
          "type": "address"
        }
      ],
      "name": "SetFeeAddress",
      "type": "event"
    },
    {
      "anonymous": false,
      "inputs": [
        {
          "indexed": true,
          "internalType": "address",
          "name": "user",
          "type": "address"
        },
        {
          "indexed": false,
          "internalType": "uint256",
          "name": "goosePerBlock",
          "type": "uint256"
        }
      ],
      "name": "UpdateEmissionRate",
      "type": "event"
    },
    {
      "anonymous": false,
      "inputs": [
        {
          "indexed": true,
          "internalType": "address",
          "name": "user",
          "type": "address"
        },
        {
          "indexed": true,
          "internalType": "uint256",
          "name": "pid",
          "type": "uint256"
        },
        {
          "indexed": false,
          "internalType": "uint256",
          "name": "amount",
          "type": "uint256"
        }
      ],
      "name": "Withdraw",
      "type": "event"
    },
    {
      "inputs": [],
      "name": "BONUS_MULTIPLIER",
      "outputs": [
        {
          "internalType": "uint256",
          "name": "",
          "type": "uint256"
        }
      ],
      "stateMutability": "view",
      "type": "function",
      "constant": true
    },
    {
      "inputs": [],
      "name": "assetConvertUint256",
      "outputs": [
        {
          "internalType": "uint256",
          "name": "",
          "type": "uint256"
        }
      ],
      "stateMutability": "view",
      "type": "function",
      "constant": true
    },
    {
      "inputs": [],
      "name": "devaddr",
      "outputs": [
        {
          "internalType": "address",
          "name": "",
          "type": "address"
        }
      ],
      "stateMutability": "view",
      "type": "function",
      "constant": true
    },
    {
      "inputs": [],
      "name": "egg",
      "outputs": [
        {
          "internalType": "contract EggToken",
          "name": "",
          "type": "address"
        }
      ],
      "stateMutability": "view",
      "type": "function",
      "constant": true
    },
    {
      "inputs": [],
      "name": "eggPerBlock",
      "outputs": [
        {
          "internalType": "uint256",
          "name": "",
          "type": "uint256"
        }
      ],
      "stateMutability": "view",
      "type": "function",
      "constant": true
    },
    {
      "inputs": [],
      "name": "feeAddress",
      "outputs": [
        {
          "internalType": "address",
          "name": "",
          "type": "address"
        }
      ],
      "stateMutability": "view",
      "type": "function",
      "constant": true
    },
    {
      "inputs": [
        {
          "internalType": "contract IBEP20",
          "name": "",
          "type": "address"
        }
      ],
      "name": "poolExistence",
      "outputs": [
        {
          "internalType": "bool",
          "name": "",
          "type": "bool"
        }
      ],
      "stateMutability": "view",
      "type": "function",
      "constant": true
    },
    {
      "inputs": [
        {
          "internalType": "uint256",
          "name": "",
          "type": "uint256"
        }
      ],
      "name": "poolInfo",
      "outputs": [
        {
          "internalType": "contract IBEP20",
          "name": "lpToken",
          "type": "address"
        },
        {
          "internalType": "uint256",
          "name": "allocPoint",
          "type": "uint256"
        },
        {
          "internalType": "uint256",
          "name": "lastRewardBlock",
          "type": "uint256"
        },
        {
          "internalType": "uint256",
          "name": "accEggPerShare",
          "type": "uint256"
        },
        {
          "internalType": "uint16",
          "name": "depositFeeBP",
          "type": "uint16"
        }
      ],
      "stateMutability": "view",
      "type": "function",
      "constant": true
    },
    {
      "inputs": [
        {
          "internalType": "address",
          "name": "",
          "type": "address"
        }
      ],
      "name": "preSaleAmount",
      "outputs": [
        {
          "internalType": "uint256",
          "name": "",
          "type": "uint256"
        }
      ],
      "stateMutability": "view",
      "type": "function",
      "constant": true
    },
    {
      "inputs": [],
      "name": "preSaleEnd",
      "outputs": [
        {
          "internalType": "bool",
          "name": "",
          "type": "bool"
        }
      ],
      "stateMutability": "view",
      "type": "function",
      "constant": true
    },
    {
      "inputs": [],
      "name": "preSaleRatio",
      "outputs": [
        {
          "internalType": "uint256",
          "name": "",
          "type": "uint256"
        }
      ],
      "stateMutability": "view",
      "type": "function",
      "constant": true
    },
    {
      "inputs": [],
      "name": "startBlock",
      "outputs": [
        {
          "internalType": "uint256",
          "name": "",
          "type": "uint256"
        }
      ],
      "stateMutability": "view",
      "type": "function",
      "constant": true
    },
    {
      "inputs": [],
      "name": "totalAllocPoint",
      "outputs": [
        {
          "internalType": "uint256",
          "name": "",
          "type": "uint256"
        }
      ],
      "stateMutability": "view",
      "type": "function",
      "constant": true
    },
    {
      "inputs": [],
      "name": "totalPreSaleAmount",
      "outputs": [
        {
          "internalType": "uint256",
          "name": "",
          "type": "uint256"
        }
      ],
      "stateMutability": "view",
      "type": "function",
      "constant": true
    },
    {
      "inputs": [
        {
          "internalType": "uint256",
          "name": "",
          "type": "uint256"
        },
        {
          "internalType": "address",
          "name": "",
          "type": "address"
        }
      ],
      "name": "userInfo",
      "outputs": [
        {
          "internalType": "uint256",
          "name": "amount",
          "type": "uint256"
        },
        {
          "internalType": "uint256",
          "name": "rewardDebt",
          "type": "uint256"
        }
      ],
      "stateMutability": "view",
      "type": "function",
      "constant": true
    },
    {
      "stateMutability": "payable",
      "type": "receive",
      "payable": true
    },
    {
      "inputs": [
        {
          "internalType": "uint256",
          "name": "_amount",
          "type": "uint256"
        }
      ],
      "name": "burnToken",
      "outputs": [],
      "stateMutability": "nonpayable",
      "type": "function"
    },
    {
      "inputs": [
        {
          "internalType": "address[]",
          "name": "_recipients",
          "type": "address[]"
        },
        {
          "internalType": "uint256",
          "name": "_amount",
          "type": "uint256"
        }
      ],
      "name": "airDrop",
      "outputs": [],
      "stateMutability": "nonpayable",
      "type": "function"
    },
    {
      "inputs": [
        {
          "internalType": "address[]",
          "name": "_recipients",
          "type": "address[]"
        },
        {
          "internalType": "uint256[]",
          "name": "_amounts",
          "type": "uint256[]"
        }
      ],
      "name": "airDropWithDifferentAmount",
      "outputs": [],
      "stateMutability": "nonpayable",
      "type": "function"
    },
    {
      "inputs": [
        {
          "internalType": "uint256",
          "name": "_adjustAmount",
          "type": "uint256"
        }
      ],
      "name": "adjustPreSaleAmount",
      "outputs": [],
      "stateMutability": "nonpayable",
      "type": "function"
    },
    {
      "inputs": [
        {
          "internalType": "uint256",
          "name": "_adjustRatio",
          "type": "uint256"
        }
      ],
      "name": "adjustPreSaleRatio",
      "outputs": [],
      "stateMutability": "nonpayable",
      "type": "function"
    },
    {
      "inputs": [
        {
          "internalType": "uint256",
          "name": "_amount",
          "type": "uint256"
        }
      ],
      "name": "withdrawlICO",
      "outputs": [],
      "stateMutability": "payable",
      "type": "function",
      "payable": true
    },
    {
      "inputs": [],
      "name": "makeIcoEnd",
      "outputs": [],
      "stateMutability": "nonpayable",
      "type": "function"
    },
    {
      "inputs": [],
      "name": "icoEnd",
      "outputs": [
        {
          "internalType": "bool",
          "name": "",
          "type": "bool"
        }
      ],
      "stateMutability": "nonpayable",
      "type": "function"
    },
    {
      "inputs": [],
      "name": "poolLength",
      "outputs": [
        {
          "internalType": "uint256",
          "name": "",
          "type": "uint256"
        }
      ],
      "stateMutability": "view",
      "type": "function",
      "constant": true
    },
    {
      "inputs": [
        {
          "internalType": "uint256",
          "name": "_allocPoint",
          "type": "uint256"
        },
        {
          "internalType": "contract IBEP20",
          "name": "_lpToken",
          "type": "address"
        },
        {
          "internalType": "uint16",
          "name": "_depositFeeBP",
          "type": "uint16"
        },
        {
          "internalType": "bool",
          "name": "_withUpdate",
          "type": "bool"
        }
      ],
      "name": "add",
      "outputs": [],
      "stateMutability": "nonpayable",
      "type": "function"
    },
    {
      "inputs": [
        {
          "internalType": "uint256",
          "name": "_pid",
          "type": "uint256"
        },
        {
          "internalType": "uint256",
          "name": "_allocPoint",
          "type": "uint256"
        },
        {
          "internalType": "uint16",
          "name": "_depositFeeBP",
          "type": "uint16"
        },
        {
          "internalType": "bool",
          "name": "_withUpdate",
          "type": "bool"
        }
      ],
      "name": "set",
      "outputs": [],
      "stateMutability": "nonpayable",
      "type": "function"
    },
    {
      "inputs": [
        {
          "internalType": "uint256",
          "name": "_from",
          "type": "uint256"
        },
        {
          "internalType": "uint256",
          "name": "_to",
          "type": "uint256"
        }
      ],
      "name": "getMultiplier",
      "outputs": [
        {
          "internalType": "uint256",
          "name": "",
          "type": "uint256"
        }
      ],
      "stateMutability": "view",
      "type": "function",
      "constant": true
    },
    {
      "inputs": [
        {
          "internalType": "uint256",
          "name": "_pid",
          "type": "uint256"
        },
        {
          "internalType": "address",
          "name": "_user",
          "type": "address"
        }
      ],
      "name": "pendingEgg",
      "outputs": [
        {
          "internalType": "uint256",
          "name": "",
          "type": "uint256"
        }
      ],
      "stateMutability": "view",
      "type": "function",
      "constant": true
    },
    {
      "inputs": [],
      "name": "massUpdatePools",
      "outputs": [],
      "stateMutability": "nonpayable",
      "type": "function"
    },
    {
      "inputs": [
        {
          "internalType": "uint256",
          "name": "_pid",
          "type": "uint256"
        }
      ],
      "name": "updatePool",
      "outputs": [],
      "stateMutability": "nonpayable",
      "type": "function"
    },
    {
      "inputs": [
        {
          "internalType": "uint256",
          "name": "_pid",
          "type": "uint256"
        },
        {
          "internalType": "uint256",
          "name": "_amount",
          "type": "uint256"
        }
      ],
      "name": "deposit",
      "outputs": [],
      "stateMutability": "nonpayable",
      "type": "function"
    },
    {
      "inputs": [
        {
          "internalType": "uint256",
          "name": "_pid",
          "type": "uint256"
        },
        {
          "internalType": "uint256",
          "name": "_amount",
          "type": "uint256"
        }
      ],
      "name": "withdraw",
      "outputs": [],
      "stateMutability": "nonpayable",
      "type": "function"
    },
    {
      "inputs": [
        {
          "internalType": "uint256",
          "name": "_pid",
          "type": "uint256"
        }
      ],
      "name": "emergencyWithdraw",
      "outputs": [],
      "stateMutability": "nonpayable",
      "type": "function"
    },
    {
      "inputs": [
        {
          "internalType": "address",
          "name": "_devaddr",
          "type": "address"
        }
      ],
      "name": "dev",
      "outputs": [],
      "stateMutability": "nonpayable",
      "type": "function"
    },
    {
      "inputs": [
        {
          "internalType": "address",
          "name": "_feeAddress",
          "type": "address"
        }
      ],
      "name": "setFeeAddress",
      "outputs": [],
      "stateMutability": "nonpayable",
      "type": "function"
    },
    {
      "inputs": [
        {
          "internalType": "uint256",
          "name": "_eggPerBlock",
          "type": "uint256"
        }
      ],
      "name": "updateEmissionRate",
      "outputs": [],
      "stateMutability": "nonpayable",
      "type": "function"
    }
  ],
  "bytecode": "0x608060405260006007556000600960006101000a81548160ff0219169083151502179055506103e8600b5568056bc75e2d63100000600c55670de0b6b3a7640000600d5534801561004f57600080fd5b50604051613a2c380380613a2c833981810160405260a081101561007257600080fd5b810190808051906020019092919080519060200190929190805190602001909291908051906020019092919080519060200190929190505050600160008190555084600160006101000a81548173ffffffffffffffffffffffffffffffffffffffff021916908373ffffffffffffffffffffffffffffffffffffffff16021790555083600260006101000a81548173ffffffffffffffffffffffffffffffffffffffff021916908373ffffffffffffffffffffffffffffffffffffffff16021790555082600460006101000a81548173ffffffffffffffffffffffffffffffffffffffff021916908373ffffffffffffffffffffffffffffffffffffffff16021790555081600381905550806008819055505050505050613894806101986000396000f3fe6080604052600436106102135760003560e01c806384e82a3311610118578063b770b697116100a0578063d49e77cd1161006f578063d49e77cd14610ba6578063d963842214610be7578063e2bbb15814610c46578063f456426f14610c8b578063fd1fc4a014610cfa576102da565b8063b770b69714610aa5578063c06abfc714610ad3578063c261e64f14610b14578063cbd258b514610b3f576102da565b80638dbb1e3a116100e75780638dbb1e3a14610945578063914b88f21461099e57806393f1a40b146109c9578063a1a4d4a414610a3f578063b63ae09714610a6a576102da565b806384e82a33146108035780638705fcd4146108785780638aa28550146108c95780638d88a90e146108f4576102da565b80634492b5221161019b578063630b5ba11161016a578063630b5ba11461071e5780636bc64e0f1461073557806374fa86a4146107625780637b47ec1a1461079d578063810941d7146107d8576102da565b80634492b5221461052457806348cd4cb11461067d57806351eb05a6146106a85780635312ea8e146106e3576102da565b80631526fe27116101e25780631526fe27146103d757806317caf6f11461045c5780633d96e6d714610487578063412753581461049e578063441a3e70146104df576102da565b80630563451a146102df578063081e3eda1461030c5780630ba84cd214610337578063113c2ba314610372576102da565b366102da576000600b5434029050600960009054906101000a900460ff1615801561023f575080600c54115b801561024b5750600034115b6102bd576040517f08c379a00000000000000000000000000000000000000000000000000000000081526004018080602001828103825260178152602001807f70726573616c6520656e64206f7220736f6c64206f757400000000000000000081525060200191505060405180910390fd5b80600c600082825403925050819055506102d73382610dc9565b50005b600080fd5b3480156102eb57600080fd5b506102f46110ba565b60405180821515815260200191505060405180910390f35b34801561031857600080fd5b506103216110d1565b6040518082815260200191505060405180910390f35b34801561034357600080fd5b506103706004803603602081101561035a57600080fd5b81019080803590602001909291905050506110de565b005b34801561037e57600080fd5b506103c16004803603602081101561039557600080fd5b81019080803573ffffffffffffffffffffffffffffffffffffffff169060200190929190505050611201565b6040518082815260200191505060405180910390f35b3480156103e357600080fd5b50610410600480360360208110156103fa57600080fd5b8101908080359060200190929190505050611219565b604051808673ffffffffffffffffffffffffffffffffffffffff1681526020018581526020018481526020018381526020018261ffff1681526020019550505050505060405180910390f35b34801561046857600080fd5b5061047161128a565b6040518082815260200191505060405180910390f35b34801561049357600080fd5b5061049c611290565b005b3480156104aa57600080fd5b506104b3611370565b604051808273ffffffffffffffffffffffffffffffffffffffff16815260200191505060405180910390f35b3480156104eb57600080fd5b506105226004803603604081101561050257600080fd5b810190808035906020019092919080359060200190929190505050611396565b005b34801561053057600080fd5b5061067b6004803603604081101561054757600080fd5b810190808035906020019064010000000081111561056457600080fd5b82018360208201111561057657600080fd5b8035906020019184602083028401116401000000008311171561059857600080fd5b919080806020026020016040519081016040528093929190818152602001838360200280828437600081840152601f19601f820116905080830192505050505050509192919290803590602001906401000000008111156105f857600080fd5b82018360208201111561060a57600080fd5b8035906020019184602083028401116401000000008311171561062c57600080fd5b919080806020026020016040519081016040528093929190818152602001838360200280828437600081840152601f19601f82011690508083019250505050505050919291929050505061167d565b005b34801561068957600080fd5b50610692611771565b6040518082815260200191505060405180910390f35b3480156106b457600080fd5b506106e1600480360360208110156106cb57600080fd5b8101908080359060200190929190505050611777565b005b3480156106ef57600080fd5b5061071c6004803603602081101561070657600080fd5b8101908080359060200190929190505050611ad2565b005b34801561072a57600080fd5b50610733611c8f565b005b34801561074157600080fd5b5061074a611cbc565b60405180821515815260200191505060405180910390f35b34801561076e57600080fd5b5061079b6004803603602081101561078557600080fd5b8101908080359060200190929190505050611ccf565b005b3480156107a957600080fd5b506107d6600480360360208110156107c057600080fd5b8101908080359060200190929190505050611d7f565b005b3480156107e457600080fd5b506107ed611e9e565b6040518082815260200191505060405180910390f35b34801561080f57600080fd5b506108766004803603608081101561082657600080fd5b8101908080359060200190929190803573ffffffffffffffffffffffffffffffffffffffff169060200190929190803561ffff169060200190929190803515159060200190929190505050611ea4565b005b34801561088457600080fd5b506108c76004803603602081101561089b57600080fd5b81019080803573ffffffffffffffffffffffffffffffffffffffff169060200190929190505050612225565b005b3480156108d557600080fd5b506108de612386565b6040518082815260200191505060405180910390f35b34801561090057600080fd5b506109436004803603602081101561091757600080fd5b81019080803573ffffffffffffffffffffffffffffffffffffffff16906020019092919050505061238b565b005b34801561095157600080fd5b506109886004803603604081101561096857600080fd5b8101908080359060200190929190803590602001909291905050506124ec565b6040518082815260200191505060405180910390f35b3480156109aa57600080fd5b506109b361251c565b6040518082815260200191505060405180910390f35b3480156109d557600080fd5b50610a22600480360360408110156109ec57600080fd5b8101908080359060200190929190803573ffffffffffffffffffffffffffffffffffffffff169060200190929190505050612522565b604051808381526020018281526020019250505060405180910390f35b348015610a4b57600080fd5b50610a54612553565b6040518082815260200191505060405180910390f35b348015610a7657600080fd5b50610aa360048036036020811015610a8d57600080fd5b8101908080359060200190929190505050612559565b005b610ad160048036036020811015610abb57600080fd5b8101908080359060200190929190505050612626565b005b348015610adf57600080fd5b50610ae8612733565b604051808273ffffffffffffffffffffffffffffffffffffffff16815260200191505060405180910390f35b348015610b2057600080fd5b50610b29612759565b6040518082815260200191505060405180910390f35b348015610b4b57600080fd5b50610b8e60048036036020811015610b6257600080fd5b81019080803573ffffffffffffffffffffffffffffffffffffffff16906020019092919050505061275f565b60405180821515815260200191505060405180910390f35b348015610bb257600080fd5b50610bbb61277f565b604051808273ffffffffffffffffffffffffffffffffffffffff16815260200191505060405180910390f35b348015610bf357600080fd5b50610c4460048036036080811015610c0a57600080fd5b810190808035906020019092919080359060200190929190803561ffff1690602001909291908035151590602001909291905050506127a5565b005b348015610c5257600080fd5b50610c8960048036036040811015610c6957600080fd5b810190808035906020019092919080359060200190929190505050612983565b005b348015610c9757600080fd5b50610ce460048036036040811015610cae57600080fd5b8101908080359060200190929190803573ffffffffffffffffffffffffffffffffffffffff169060200190929190505050612d09565b6040518082815260200191505060405180910390f35b348015610d0657600080fd5b50610dc760048036036040811015610d1d57600080fd5b8101908080359060200190640100000000811115610d3a57600080fd5b820183602082011115610d4c57600080fd5b80359060200191846020830284011164010000000083111715610d6e57600080fd5b919080806020026020016040519081016040528093929190818152602001838360200280828437600081840152601f19601f82011690508083019250505050505050919291929080359060200190929190505050612f4f565b005b6000600160009054906101000a900473ffffffffffffffffffffffffffffffffffffffff1673ffffffffffffffffffffffffffffffffffffffff166370a08231306040518263ffffffff1660e01b8152600401808273ffffffffffffffffffffffffffffffffffffffff16815260200191505060206040518083038186803b158015610e5457600080fd5b505afa158015610e68573d6000803e3d6000fd5b505050506040513d6020811015610e7e57600080fd5b81019080805190602001909291905050509050600081831115610f7057600160009054906101000a900473ffffffffffffffffffffffffffffffffffffffff1673ffffffffffffffffffffffffffffffffffffffff1663a9059cbb85846040518363ffffffff1660e01b8152600401808373ffffffffffffffffffffffffffffffffffffffff16815260200182815260200192505050602060405180830381600087803b158015610f2e57600080fd5b505af1158015610f42573d6000803e3d6000fd5b505050506040513d6020811015610f5857600080fd5b81019080805190602001909291905050509050611041565b600160009054906101000a900473ffffffffffffffffffffffffffffffffffffffff1673ffffffffffffffffffffffffffffffffffffffff1663a9059cbb85856040518363ffffffff1660e01b8152600401808373ffffffffffffffffffffffffffffffffffffffff16815260200182815260200192505050602060405180830381600087803b15801561100357600080fd5b505af1158015611017573d6000803e3d6000fd5b505050506040513d602081101561102d57600080fd5b810190808051906020019092919050505090505b806110b4576040517f08c379a00000000000000000000000000000000000000000000000000000000081526004018080602001828103825260208152602001807f736166654567675472616e736665723a207472616e73666572206661696c656481525060200191505060405180910390fd5b50505050565b6000600960009054906101000a900460ff16905090565b6000600580549050905090565b600260009054906101000a900473ffffffffffffffffffffffffffffffffffffffff1673ffffffffffffffffffffffffffffffffffffffff163373ffffffffffffffffffffffffffffffffffffffff16146111a1576040517f08c379a000000000000000000000000000000000000000000000000000000000815260040180806020018281038252600e8152602001807f6f776e65722066756e6374696f6e00000000000000000000000000000000000081525060200191505060405180910390fd5b6111a9611c8f565b806003819055503373ffffffffffffffffffffffffffffffffffffffff167fe2492e003bbe8afa53088b406f0c1cb5d9e280370fc72a74cf116ffd343c4053826040518082815260200191505060405180910390a250565b600a6020528060005260406000206000915090505481565b6005818154811061122657fe5b90600052602060002090600502016000915090508060000160009054906101000a900473ffffffffffffffffffffffffffffffffffffffff16908060010154908060020154908060030154908060040160009054906101000a900461ffff16905085565b60075481565b600260009054906101000a900473ffffffffffffffffffffffffffffffffffffffff1673ffffffffffffffffffffffffffffffffffffffff163373ffffffffffffffffffffffffffffffffffffffff1614611353576040517f08c379a00000000000000000000000000000000000000000000000000000000081526004018080602001828103825260198152602001807f4f6e6c79206465762063616e206d616b652049434f20656e640000000000000081525060200191505060405180910390fd5b6001600960006101000a81548160ff021916908315150217905550565b600460009054906101000a900473ffffffffffffffffffffffffffffffffffffffff1681565b6002600054141561140f576040517f08c379a000000000000000000000000000000000000000000000000000000000815260040180806020018281038252601f8152602001807f5265656e7472616e637947756172643a207265656e7472616e742063616c6c0081525060200191505060405180910390fd5b600260008190555060006005838154811061142657fe5b9060005260206000209060050201905060006006600085815260200190815260200160002060003373ffffffffffffffffffffffffffffffffffffffff1673ffffffffffffffffffffffffffffffffffffffff16815260200190815260200160002090508281600001541015611504576040517f08c379a00000000000000000000000000000000000000000000000000000000081526004018080602001828103825260128152602001807f77697468647261773a206e6f7420676f6f64000000000000000000000000000081525060200191505060405180910390fd5b61150d84611777565b6000611557826001015461154964e8d4a5100061153b8760030154876000015461304d90919063ffffffff16565b6130d390919063ffffffff16565b61315c90919063ffffffff16565b9050600081111561156d5761156c3382610dc9565b5b60008411156115e55761158d84836000015461315c90919063ffffffff16565b82600001819055506115e433858560000160009054906101000a900473ffffffffffffffffffffffffffffffffffffffff1673ffffffffffffffffffffffffffffffffffffffff166131df9092919063ffffffff16565b5b61161764e8d4a510006116098560030154856000015461304d90919063ffffffff16565b6130d390919063ffffffff16565b8260010181905550843373ffffffffffffffffffffffffffffffffffffffff167ff279e6a1f5e320cca91135676d9cb6e44ca8a08c0b88342bcdb1144f6511b568866040518082815260200191505060405180910390a350505060016000819055505050565b600260009054906101000a900473ffffffffffffffffffffffffffffffffffffffff1673ffffffffffffffffffffffffffffffffffffffff163373ffffffffffffffffffffffffffffffffffffffff1614611723576040517f08c379a00000000000000000000000000000000000000000000000000000000081526004018080602001828103825260298152602001806137f06029913960400191505060405180910390fd5b60005b825181101561176c5761175f83828151811061173e57fe5b602002602001015183838151811061175257fe5b6020026020010151610dc9565b8080600101915050611726565b505050565b60085481565b60006005828154811061178657fe5b90600052602060002090600502019050806002015443116117a75750611acf565b60008160000160009054906101000a900473ffffffffffffffffffffffffffffffffffffffff1673ffffffffffffffffffffffffffffffffffffffff166370a08231306040518263ffffffff1660e01b8152600401808273ffffffffffffffffffffffffffffffffffffffff16815260200191505060206040518083038186803b15801561183457600080fd5b505afa158015611848573d6000803e3d6000fd5b505050506040513d602081101561185e57600080fd5b810190808051906020019092919050505090506000811480611884575060008260010154145b15611899574382600201819055505050611acf565b60006118a98360020154436124ec565b905060006118ec6007546118de86600101546118d06003548761304d90919063ffffffff16565b61304d90919063ffffffff16565b6130d390919063ffffffff16565b9050600160009054906101000a900473ffffffffffffffffffffffffffffffffffffffff1673ffffffffffffffffffffffffffffffffffffffff166340c10f19600260009054906101000a900473ffffffffffffffffffffffffffffffffffffffff16611963600a856130d390919063ffffffff16565b6040518363ffffffff1660e01b8152600401808373ffffffffffffffffffffffffffffffffffffffff16815260200182815260200192505050600060405180830381600087803b1580156119b657600080fd5b505af11580156119ca573d6000803e3d6000fd5b50505050600160009054906101000a900473ffffffffffffffffffffffffffffffffffffffff1673ffffffffffffffffffffffffffffffffffffffff166340c10f1930836040518363ffffffff1660e01b8152600401808373ffffffffffffffffffffffffffffffffffffffff16815260200182815260200192505050600060405180830381600087803b158015611a6157600080fd5b505af1158015611a75573d6000803e3d6000fd5b50505050611ab9611aa684611a9864e8d4a510008561304d90919063ffffffff16565b6130d390919063ffffffff16565b856003015461328190919063ffffffff16565b8460030181905550438460020181905550505050505b50565b60026000541415611b4b576040517f08c379a000000000000000000000000000000000000000000000000000000000815260040180806020018281038252601f8152602001807f5265656e7472616e637947756172643a207265656e7472616e742063616c6c0081525060200191505060405180910390fd5b6002600081905550600060058281548110611b6257fe5b9060005260206000209060050201905060006006600084815260200190815260200160002060003373ffffffffffffffffffffffffffffffffffffffff1673ffffffffffffffffffffffffffffffffffffffff16815260200190815260200160002090506000816000015490506000826000018190555060008260010181905550611c3233828560000160009054906101000a900473ffffffffffffffffffffffffffffffffffffffff1673ffffffffffffffffffffffffffffffffffffffff166131df9092919063ffffffff16565b833373ffffffffffffffffffffffffffffffffffffffff167fbb757047c2b5f3974fe26b7c10f732e7bce710b0952a71082702781e62ae0595836040518082815260200191505060405180910390a3505050600160008190555050565b6000600580549050905060005b81811015611cb857611cad81611777565b806001019050611c9c565b5050565b600960009054906101000a900460ff1681565b600260009054906101000a900473ffffffffffffffffffffffffffffffffffffffff1673ffffffffffffffffffffffffffffffffffffffff163373ffffffffffffffffffffffffffffffffffffffff1614611d75576040517f08c379a00000000000000000000000000000000000000000000000000000000081526004018080602001828103825260218152602001806137a96021913960400191505060405180910390fd5b80600b8190555050565b600260009054906101000a900473ffffffffffffffffffffffffffffffffffffffff1673ffffffffffffffffffffffffffffffffffffffff163373ffffffffffffffffffffffffffffffffffffffff1614611e42576040517f08c379a00000000000000000000000000000000000000000000000000000000081526004018080602001828103825260178152602001807f6f6e6c79206465762063616e206275726e20746f6b656e00000000000000000081525060200191505060405180910390fd5b611e4d600082610dc9565b3373ffffffffffffffffffffffffffffffffffffffff167fcc16f5dbb4873280815c1ee09dbd06736cffcc184412cf7a71a0fdb75d397ca5826040518082815260200191505060405180910390a250565b600c5481565b8260001515600e60008373ffffffffffffffffffffffffffffffffffffffff1673ffffffffffffffffffffffffffffffffffffffff16815260200190815260200160002060009054906101000a900460ff16151514611f6b576040517f08c379a00000000000000000000000000000000000000000000000000000000081526004018080602001828103825260198152602001807f6e6f6e4475706c6963617465643a206475706c6963617465640000000000000081525060200191505060405180910390fd5b600260009054906101000a900473ffffffffffffffffffffffffffffffffffffffff1673ffffffffffffffffffffffffffffffffffffffff163373ffffffffffffffffffffffffffffffffffffffff161461202e576040517f08c379a000000000000000000000000000000000000000000000000000000000815260040180806020018281038252600e8152602001807f6f776e65722066756e6374696f6e00000000000000000000000000000000000081525060200191505060405180910390fd5b6127108361ffff16111561208d576040517f08c379a000000000000000000000000000000000000000000000000000000000815260040180806020018281038252602581526020018061375a6025913960400191505060405180910390fd5b811561209c5761209b611c8f565b5b600060085443116120af576008546120b1565b435b90506120c88660075461328190919063ffffffff16565b6007819055506001600e60008773ffffffffffffffffffffffffffffffffffffffff1673ffffffffffffffffffffffffffffffffffffffff16815260200190815260200160002060006101000a81548160ff02191690831515021790555060056040518060a001604052808773ffffffffffffffffffffffffffffffffffffffff168152602001888152602001838152602001600081526020018661ffff16815250908060018154018082558091505060019003906000526020600020906005020160009091909190915060008201518160000160006101000a81548173ffffffffffffffffffffffffffffffffffffffff021916908373ffffffffffffffffffffffffffffffffffffffff16021790555060208201518160010155604082015181600201556060820151816003015560808201518160040160006101000a81548161ffff021916908361ffff1602179055505050505050505050565b600460009054906101000a900473ffffffffffffffffffffffffffffffffffffffff1673ffffffffffffffffffffffffffffffffffffffff163373ffffffffffffffffffffffffffffffffffffffff16146122e8576040517f08c379a00000000000000000000000000000000000000000000000000000000081526004018080602001828103825260188152602001807f736574466565416464726573733a20464f5242494444454e000000000000000081525060200191505060405180910390fd5b80600460006101000a81548173ffffffffffffffffffffffffffffffffffffffff021916908373ffffffffffffffffffffffffffffffffffffffff1602179055508073ffffffffffffffffffffffffffffffffffffffff163373ffffffffffffffffffffffffffffffffffffffff167fd44190acf9d04bdb5d3a1aafff7e6dee8b40b93dfb8c5d3f0eea4b9f4539c3f760405160405180910390a350565b600181565b600260009054906101000a900473ffffffffffffffffffffffffffffffffffffffff1673ffffffffffffffffffffffffffffffffffffffff163373ffffffffffffffffffffffffffffffffffffffff161461244e576040517f08c379a00000000000000000000000000000000000000000000000000000000081526004018080602001828103825260098152602001807f6465763a207775743f000000000000000000000000000000000000000000000081525060200191505060405180910390fd5b80600260006101000a81548173ffffffffffffffffffffffffffffffffffffffff021916908373ffffffffffffffffffffffffffffffffffffffff1602179055508073ffffffffffffffffffffffffffffffffffffffff163373ffffffffffffffffffffffffffffffffffffffff167f618c54559e94f1499a808aad71ee8729f8e74e8c48e979616328ce493a1a52e760405160405180910390a350565b60006125146001612506858561315c90919063ffffffff16565b61304d90919063ffffffff16565b905092915050565b600b5481565b6006602052816000526040600020602052806000526040600020600091509150508060000154908060010154905082565b60035481565b600260009054906101000a900473ffffffffffffffffffffffffffffffffffffffff1673ffffffffffffffffffffffffffffffffffffffff163373ffffffffffffffffffffffffffffffffffffffff161461261c576040517f08c379a000000000000000000000000000000000000000000000000000000000815260040180806020018281038252601b8152602001807f6f6e6c79206465762063616e2061646a7573742070726573616c65000000000081525060200191505060405180910390fd5b80600c8190555050565b600260009054906101000a900473ffffffffffffffffffffffffffffffffffffffff1673ffffffffffffffffffffffffffffffffffffffff163373ffffffffffffffffffffffffffffffffffffffff16146126e9576040517f08c379a00000000000000000000000000000000000000000000000000000000081526004018080602001828103825260158152602001807f6f6e6c79206465762063616e207769746864726177000000000000000000000081525060200191505060405180910390fd5b3373ffffffffffffffffffffffffffffffffffffffff166108fc829081150290604051600060405180830381858888f1935050505015801561272f573d6000803e3d6000fd5b5050565b600160009054906101000a900473ffffffffffffffffffffffffffffffffffffffff1681565b600d5481565b600e6020528060005260406000206000915054906101000a900460ff1681565b600260009054906101000a900473ffffffffffffffffffffffffffffffffffffffff1681565b600260009054906101000a900473ffffffffffffffffffffffffffffffffffffffff1673ffffffffffffffffffffffffffffffffffffffff163373ffffffffffffffffffffffffffffffffffffffff1614612868576040517f08c379a000000000000000000000000000000000000000000000000000000000815260040180806020018281038252600e8152602001807f6f776e65722066756e6374696f6e00000000000000000000000000000000000081525060200191505060405180910390fd5b6127108261ffff1611156128c7576040517f08c379a000000000000000000000000000000000000000000000000000000000815260040180806020018281038252602581526020018061383a6025913960400191505060405180910390fd5b80156128d6576128d5611c8f565b5b61291b8361290d600587815481106128ea57fe5b90600052602060002090600502016001015460075461315c90919063ffffffff16565b61328190919063ffffffff16565b600781905550826005858154811061292f57fe5b906000526020600020906005020160010181905550816005858154811061295257fe5b906000526020600020906005020160040160006101000a81548161ffff021916908361ffff16021790555050505050565b600260005414156129fc576040517f08c379a000000000000000000000000000000000000000000000000000000000815260040180806020018281038252601f8152602001807f5265656e7472616e637947756172643a207265656e7472616e742063616c6c0081525060200191505060405180910390fd5b6002600081905550600060058381548110612a1357fe5b9060005260206000209060050201905060006006600085815260200190815260200160002060003373ffffffffffffffffffffffffffffffffffffffff1673ffffffffffffffffffffffffffffffffffffffff1681526020019081526020016000209050612a8084611777565b600081600001541115612aef576000612ad78260010154612ac964e8d4a51000612abb8760030154876000015461304d90919063ffffffff16565b6130d390919063ffffffff16565b61315c90919063ffffffff16565b90506000811115612aed57612aec3382610dc9565b5b505b6000831115612c7257612b493330858560000160009054906101000a900473ffffffffffffffffffffffffffffffffffffffff1673ffffffffffffffffffffffffffffffffffffffff16613309909392919063ffffffff16565b60008260040160009054906101000a900461ffff1661ffff161115612c51576000612ba7612710612b998560040160009054906101000a900461ffff1661ffff168761304d90919063ffffffff16565b6130d390919063ffffffff16565b9050612c1a600460009054906101000a900473ffffffffffffffffffffffffffffffffffffffff16828560000160009054906101000a900473ffffffffffffffffffffffffffffffffffffffff1673ffffffffffffffffffffffffffffffffffffffff166131df9092919063ffffffff16565b612c4381612c3586856000015461328190919063ffffffff16565b61315c90919063ffffffff16565b826000018190555050612c71565b612c6883826000015461328190919063ffffffff16565b81600001819055505b5b612ca464e8d4a51000612c968460030154846000015461304d90919063ffffffff16565b6130d390919063ffffffff16565b8160010181905550833373ffffffffffffffffffffffffffffffffffffffff167f90890809c654f11d6e72a28fa60149770a0d11ec6c92319d6ceb2bb0a4ea1a15856040518082815260200191505060405180910390a3505060016000819055505050565b60008060058481548110612d1957fe5b9060005260206000209060050201905060006006600086815260200190815260200160002060008573ffffffffffffffffffffffffffffffffffffffff1673ffffffffffffffffffffffffffffffffffffffff168152602001908152602001600020905060008260030154905060008360000160009054906101000a900473ffffffffffffffffffffffffffffffffffffffff1673ffffffffffffffffffffffffffffffffffffffff166370a08231306040518263ffffffff1660e01b8152600401808273ffffffffffffffffffffffffffffffffffffffff16815260200191505060206040518083038186803b158015612e1357600080fd5b505afa158015612e27573d6000803e3d6000fd5b505050506040513d6020811015612e3d57600080fd5b81019080805190602001909291905050509050836002015443118015612e64575060008114155b15612eff576000612e798560020154436124ec565b90506000612ebc600754612eae8860010154612ea06003548761304d90919063ffffffff16565b61304d90919063ffffffff16565b6130d390919063ffffffff16565b9050612efa612eeb84612edd64e8d4a510008561304d90919063ffffffff16565b6130d390919063ffffffff16565b8561328190919063ffffffff16565b935050505b612f438360010154612f3564e8d4a51000612f2786886000015461304d90919063ffffffff16565b6130d390919063ffffffff16565b61315c90919063ffffffff16565b94505050505092915050565b600260009054906101000a900473ffffffffffffffffffffffffffffffffffffffff1673ffffffffffffffffffffffffffffffffffffffff163373ffffffffffffffffffffffffffffffffffffffff1614613012576040517f08c379a00000000000000000000000000000000000000000000000000000000081526004018080602001828103825260148152602001807f6f6e6c79206465762063616e2061697264726f7000000000000000000000000081525060200191505060405180910390fd5b60005b82518110156130485761303b83828151811061302d57fe5b602002602001015183610dc9565b8080600101915050613015565b505050565b60008083141561306057600090506130cd565b600082840290508284828161307157fe5b04146130c8576040517f08c379a00000000000000000000000000000000000000000000000000000000081526004018080602001828103825260218152602001806138196021913960400191505060405180910390fd5b809150505b92915050565b600080821161314a576040517f08c379a000000000000000000000000000000000000000000000000000000000815260040180806020018281038252601a8152602001807f536166654d6174683a206469766973696f6e206279207a65726f00000000000081525060200191505060405180910390fd5b81838161315357fe5b04905092915050565b6000828211156131d4576040517f08c379a000000000000000000000000000000000000000000000000000000000815260040180806020018281038252601e8152602001807f536166654d6174683a207375627472616374696f6e206f766572666c6f77000081525060200191505060405180910390fd5b818303905092915050565b61327c8363a9059cbb60e01b8484604051602401808373ffffffffffffffffffffffffffffffffffffffff16815260200182815260200192505050604051602081830303815290604052907bffffffffffffffffffffffffffffffffffffffffffffffffffffffff19166020820180517bffffffffffffffffffffffffffffffffffffffffffffffffffffffff83818316178352505050506133ca565b505050565b6000808284019050838110156132ff576040517f08c379a000000000000000000000000000000000000000000000000000000000815260040180806020018281038252601b8152602001807f536166654d6174683a206164646974696f6e206f766572666c6f77000000000081525060200191505060405180910390fd5b8091505092915050565b6133c4846323b872dd60e01b858585604051602401808473ffffffffffffffffffffffffffffffffffffffff1681526020018373ffffffffffffffffffffffffffffffffffffffff1681526020018281526020019350505050604051602081830303815290604052907bffffffffffffffffffffffffffffffffffffffffffffffffffffffff19166020820180517bffffffffffffffffffffffffffffffffffffffffffffffffffffffff83818316178352505050506133ca565b50505050565b606061342c826040518060400160405280602081526020017f5361666542455032303a206c6f772d6c6576656c2063616c6c206661696c65648152508573ffffffffffffffffffffffffffffffffffffffff166134b99092919063ffffffff16565b90506000815111156134b45780806020019051602081101561344d57600080fd5b81019080805190602001909291905050506134b3576040517f08c379a000000000000000000000000000000000000000000000000000000000815260040180806020018281038252602a81526020018061377f602a913960400191505060405180910390fd5b5b505050565b60606134c884846000856134d1565b90509392505050565b60608247101561352c576040517f08c379a00000000000000000000000000000000000000000000000000000000081526004018080602001828103825260268152602001806137ca6026913960400191505060405180910390fd5b6135358561367a565b6135a7576040517f08c379a000000000000000000000000000000000000000000000000000000000815260040180806020018281038252601d8152602001807f416464726573733a2063616c6c20746f206e6f6e2d636f6e747261637400000081525060200191505060405180910390fd5b600060608673ffffffffffffffffffffffffffffffffffffffff1685876040518082805190602001908083835b602083106135f757805182526020820191506020810190506020830392506135d4565b6001836020036101000a03801982511681845116808217855250505050505090500191505060006040518083038185875af1925050503d8060008114613659576040519150601f19603f3d011682016040523d82523d6000602084013e61365e565b606091505b509150915061366e82828661368d565b92505050949350505050565b600080823b905060008111915050919050565b6060831561369d57829050613752565b6000835111156136b05782518084602001fd5b816040517f08c379a00000000000000000000000000000000000000000000000000000000081526004018080602001828103825283818151815260200191508051906020019080838360005b838110156137175780820151818401526020810190506136fc565b50505050905090810190601f1680156137445780820380516001836020036101000a031916815260200191505b509250505060405180910390fd5b939250505056fe6164643a20696e76616c6964206465706f7369742066656520626173697320706f696e74735361666542455032303a204245503230206f7065726174696f6e20646964206e6f7420737563636565646f6e6c79206465762063616e2061646a7573742070726573616c6520726174696f416464726573733a20696e73756666696369656e742062616c616e636520666f722063616c6c6f6e6c79206465762063616e20616972646f70207769746820646966666572656e7420616d6f756e74536166654d6174683a206d756c7469706c69636174696f6e206f766572666c6f777365743a20696e76616c6964206465706f7369742066656520626173697320706f696e7473a26469706673582212209af7edb4ae6ce931fe4284c88b4d2909f212aa14df016f93b56a0d026446146e64736f6c634300060c0033",
  "immutableReferences": {},
  "source": "// SPDX-License-Identifier: MIT\n\n//REDEPLOY 1 \n\npragma solidity 0.6.12;\n\nimport \"@openzeppelin/contracts/math/SafeMath.sol\";\nimport \"./libs/IBEP20.sol\";\nimport \"./libs/SafeBEP20.sol\";\n\nimport \"@openzeppelin/contracts/utils/ReentrancyGuard.sol\";\n\nimport \"./EggToken.sol\";\n\n// MasterChef is the master of Egg. He can make Egg and he is a fair guy.\n//\n// Note that it's ownable and the owner wields tremendous power. The ownership\n// will be transferred to a governance smart contract once EGG is sufficiently\n// distributed and the community can show to govern itself.\n//\n// Have fun reading it. Hopefully it's bug-free. God bless.\ncontract MasterChefV2 is  ReentrancyGuard {\n    using SafeMath for uint256;\n    using SafeBEP20 for IBEP20;\n\n    // Info of each user.\n    struct UserInfo {\n        uint256 amount;         // How many LP tokens the user has provided.\n        uint256 rewardDebt;     // Reward debt. See explanation below.\n        //\n        // We do some fancy math here. Basically, any point in time, the amount of EGGs\n        // entitled to a user but is pending to be distributed is:\n        //\n        //   pending reward = (user.amount * pool.accEggPerShare) - user.rewardDebt\n        //\n        // Whenever a user deposits or withdraws LP tokens to a pool. Here's what happens:\n        //   1. The pool's `accEggPerShare` (and `lastRewardBlock`) gets updated.\n        //   2. User receives the pending reward sent to his/her address.\n        //   3. User's `amount` gets updated.\n        //   4. User's `rewardDebt` gets updated.\n    }\n\n    // Info of each pool.\n    struct PoolInfo {\n        IBEP20 lpToken;           // Address of LP token contract.\n        uint256 allocPoint;       // How many allocation points assigned to this pool. EGGs to distribute per block.\n        uint256 lastRewardBlock;  // Last block number that EGGs distribution occurs.\n        uint256 accEggPerShare;   // Accumulated EGGs per share, times 1e12. See below.\n        uint16 depositFeeBP;      // Deposit fee in basis points\n    }\n\n    // The EGG TOKEN!\n    EggToken public egg;\n    // Dev address.\n    address public devaddr;\n    // EGG tokens created per block.\n    uint256 public eggPerBlock;\n    // Bonus muliplier for early egg makers.\n    uint256 public constant BONUS_MULTIPLIER = 1;\n    // Deposit Fee address\n    address public feeAddress;\n\n    // Info of each pool.\n    PoolInfo[] public poolInfo;\n    // Info of each user that stakes LP tokens.\n    mapping(uint256 => mapping(address => UserInfo)) public userInfo;\n    // Total allocation points. Must be the sum of all allocation points in all pools.\n    uint256 public totalAllocPoint = 0;\n    // The block number when EGG mining starts.\n    uint256 public startBlock;\n\n\n   \n\n\n\n    // Presale end?\n    bool public preSaleEnd = false;\n    mapping (address => uint256) public preSaleAmount;\n    uint256 public preSaleRatio = 1000;\n    uint256 public totalPreSaleAmount = 100000000000000000000;\n    uint256 public assetConvertUint256 = 1000000000000000000;\n\n\n    event Deposit(address indexed user, uint256 indexed pid, uint256 amount);\n    event Withdraw(address indexed user, uint256 indexed pid, uint256 amount);\n    event EmergencyWithdraw(address indexed user, uint256 indexed pid, uint256 amount);\n    event SetFeeAddress(address indexed user, address indexed newAddress);\n    event SetDevAddress(address indexed user, address indexed newAddress);\n    event UpdateEmissionRate(address indexed user, uint256 goosePerBlock);\n    event Burn(address indexed burner, uint256 value);\n\n    event EmissionRateUpdated(address indexed caller, uint256 previousAmount, uint256 newAmount);\n\n    constructor(\n        EggToken _egg,\n        address _devaddr,\n        address _feeAddress,\n        uint256 _eggPerBlock,\n        uint256 _startBlock\n    ) public {\n        egg = _egg;\n        devaddr = _devaddr;\n        feeAddress = _feeAddress;\n        eggPerBlock = _eggPerBlock;\n        startBlock = _startBlock;\n\n    \n    }\n\n\n       // Reduce emission rate by 3% every 9,600 blocks ~ 8hours\n   \n\n   \n\n\n\n\n\n     function burnToken(uint256 _amount) public {\n        require(msg.sender == devaddr,\"only dev can burn token\");\n        safeEggTransfer(address(0),_amount);\n        emit Burn(msg.sender,_amount);\n\n        \n    }\n\n    function airDrop(address[] memory _recipients, uint256  _amount) public {\n        // Limit 250 address each time to avoid run out of gas\n        require(msg.sender == devaddr, \"only dev can airdrop\");\n        for (uint256 i = 0; i < _recipients.length; i++) {\n            safeEggTransfer(_recipients[i],_amount);\n        }\n    }\n\n    function airDropWithDifferentAmount(address[] memory _recipients, uint256[] memory _amounts) public {\n        // Allow to transfer multiple address with different amount\n        require(msg.sender == devaddr,\"only dev can airdop with different amount\");\n        for (uint256 i = 0;i < _recipients.length; i++) {\n            safeEggTransfer(_recipients[i],_amounts[i]);\n    }\n    }\n\n    function adjustPreSaleAmount(uint256 _adjustAmount) public {\n        require(msg.sender == devaddr,\"only dev can adjust presale\");\n        totalPreSaleAmount = _adjustAmount;\n    }\n\n    \n\n    function adjustPreSaleRatio(uint256 _adjustRatio) public \n    {\n        require(msg.sender == devaddr,\"only dev can adjust presale ratio\");\n        preSaleRatio = _adjustRatio;\n    }\n\n     receive() external payable {\n        uint256 buyAmount = msg.value * preSaleRatio;\n        require(!preSaleEnd && totalPreSaleAmount > buyAmount && msg.value > 0, \"presale end or sold out\");\n        totalPreSaleAmount -= buyAmount;\n        safeEggTransfer(msg.sender,buyAmount);\n    }\n\n     function withdrawlICO(uint256 _amount) public payable {\n        require(msg.sender == devaddr,\"only dev can withdraw\");\n        msg.sender.transfer(_amount);\n\n    }\n\n    function makeIcoEnd() public {\n        require(msg.sender == devaddr,\"Only dev can make ICO end\");\n        preSaleEnd = true;\n    }\n\n    function icoEnd() public returns (bool)\n    {\n        return preSaleEnd;\n    }\n\n\n\n\n\n    function poolLength() external view returns (uint256) {\n        return poolInfo.length;\n    }\n\n    mapping(IBEP20 => bool) public poolExistence;\n    modifier nonDuplicated(IBEP20 _lpToken) {\n        require(poolExistence[_lpToken] == false, \"nonDuplicated: duplicated\");\n        _;\n    }\n\n    // Add a new lp to the pool. Can only be called by the owner.\n    function add(uint256 _allocPoint, IBEP20 _lpToken, uint16 _depositFeeBP, bool _withUpdate) public  nonDuplicated(_lpToken) {\n        require(msg.sender == devaddr,\"owner function\");\n         // 1% = 100 _allocPointForDev\n        require(_depositFeeBP <= 10000, \"add: invalid deposit fee basis points\");\n        if (_withUpdate) {\n            massUpdatePools();\n        }\n        uint256 lastRewardBlock = block.number > startBlock ? block.number : startBlock;\n        totalAllocPoint = totalAllocPoint.add(_allocPoint);\n        poolExistence[_lpToken] = true;\n        poolInfo.push(PoolInfo({\n        lpToken : _lpToken,\n        allocPoint : _allocPoint,\n        lastRewardBlock : lastRewardBlock,\n        accEggPerShare : 0,\n        depositFeeBP : _depositFeeBP\n        }));\n    }\n\n    // Update the given pool's EGG allocation point and deposit fee. Can only be called by the owner.\n    function set(uint256 _pid, uint256 _allocPoint, uint16 _depositFeeBP, bool _withUpdate) public  {\n        require(msg.sender == devaddr,\"owner function\");\n        require(_depositFeeBP <= 10000, \"set: invalid deposit fee basis points\");\n        if (_withUpdate) {\n            massUpdatePools();\n        }\n        totalAllocPoint = totalAllocPoint.sub(poolInfo[_pid].allocPoint).add(_allocPoint);\n        poolInfo[_pid].allocPoint = _allocPoint;\n        poolInfo[_pid].depositFeeBP = _depositFeeBP;\n    }\n\n    // Return reward multiplier over the given _from to _to block.\n    function getMultiplier(uint256 _from, uint256 _to) public view returns (uint256) {\n        return _to.sub(_from).mul(BONUS_MULTIPLIER);\n    }\n\n    // View function to see pending EGGs on frontend.\n    function pendingEgg(uint256 _pid, address _user) external view returns (uint256) {\n        PoolInfo storage pool = poolInfo[_pid];\n        UserInfo storage user = userInfo[_pid][_user];\n        uint256 accEggPerShare = pool.accEggPerShare;\n        uint256 lpSupply = pool.lpToken.balanceOf(address(this));\n        if (block.number > pool.lastRewardBlock && lpSupply != 0) {\n            uint256 multiplier = getMultiplier(pool.lastRewardBlock, block.number);\n            uint256 eggReward = multiplier.mul(eggPerBlock).mul(pool.allocPoint).div(totalAllocPoint);\n            accEggPerShare = accEggPerShare.add(eggReward.mul(1e12).div(lpSupply));\n        }\n        return user.amount.mul(accEggPerShare).div(1e12).sub(user.rewardDebt);\n    }\n\n    // Update reward variables for all pools. Be careful of gas spending!\n    function massUpdatePools() public {\n        uint256 length = poolInfo.length;\n        for (uint256 pid = 0; pid < length; ++pid) {\n            updatePool(pid);\n        }\n    }\n\n    // Update reward variables of the given pool to be up-to-date.\n    function updatePool(uint256 _pid) public {\n\n       \n\n        PoolInfo storage pool = poolInfo[_pid];\n        if (block.number <= pool.lastRewardBlock) {\n            return;\n        }\n        uint256 lpSupply = pool.lpToken.balanceOf(address(this));\n        if (lpSupply == 0 || pool.allocPoint == 0) {\n            pool.lastRewardBlock = block.number;\n            return;\n        }\n        uint256 multiplier = getMultiplier(pool.lastRewardBlock, block.number);\n        uint256 eggReward = multiplier.mul(eggPerBlock).mul(pool.allocPoint).div(totalAllocPoint);\n        egg.mint(devaddr, eggReward.div(10));\n        egg.mint(address(this), eggReward);\n        pool.accEggPerShare = pool.accEggPerShare.add(eggReward.mul(1e12).div(lpSupply));\n        pool.lastRewardBlock = block.number;\n    }\n\n    // Deposit LP tokens to MasterChef for EGG allocation.\n    function deposit(uint256 _pid, uint256 _amount) public nonReentrant {\n        PoolInfo storage pool = poolInfo[_pid];\n        UserInfo storage user = userInfo[_pid][msg.sender];\n        updatePool(_pid);\n        if (user.amount > 0) {\n            uint256 pending = user.amount.mul(pool.accEggPerShare).div(1e12).sub(user.rewardDebt);\n            if (pending > 0) {\n                safeEggTransfer(msg.sender, pending);\n            }\n        }\n        if (_amount > 0) {\n            pool.lpToken.safeTransferFrom(address(msg.sender), address(this), _amount);\n            if (pool.depositFeeBP > 0) {\n                uint256 depositFee = _amount.mul(pool.depositFeeBP).div(10000);\n                pool.lpToken.safeTransfer(feeAddress, depositFee);\n                user.amount = user.amount.add(_amount).sub(depositFee);\n            } else {\n                user.amount = user.amount.add(_amount);\n            }\n        }\n        user.rewardDebt = user.amount.mul(pool.accEggPerShare).div(1e12);\n        emit Deposit(msg.sender, _pid, _amount);\n    }\n\n    // Withdraw LP tokens from MasterChef.\n    function withdraw(uint256 _pid, uint256 _amount) public nonReentrant {\n        PoolInfo storage pool = poolInfo[_pid];\n        UserInfo storage user = userInfo[_pid][msg.sender];\n        require(user.amount >= _amount, \"withdraw: not good\");\n        updatePool(_pid);\n        uint256 pending = user.amount.mul(pool.accEggPerShare).div(1e12).sub(user.rewardDebt);\n        if (pending > 0) {\n            safeEggTransfer(msg.sender, pending);\n        }\n        if (_amount > 0) {\n            user.amount = user.amount.sub(_amount);\n            pool.lpToken.safeTransfer(address(msg.sender), _amount);\n        }\n        user.rewardDebt = user.amount.mul(pool.accEggPerShare).div(1e12);\n        emit Withdraw(msg.sender, _pid, _amount);\n    }\n\n    // Withdraw without caring about rewards. EMERGENCY ONLY.\n    function emergencyWithdraw(uint256 _pid) public nonReentrant {\n        PoolInfo storage pool = poolInfo[_pid];\n        UserInfo storage user = userInfo[_pid][msg.sender];\n        uint256 amount = user.amount;\n        user.amount = 0;\n        user.rewardDebt = 0;\n        pool.lpToken.safeTransfer(address(msg.sender), amount);\n        emit EmergencyWithdraw(msg.sender, _pid, amount);\n    }\n\n    // Safe egg transfer function, just in case if rounding error causes pool to not have enough EGGs.\n    function safeEggTransfer(address _to, uint256 _amount) internal {\n        uint256 eggBal = egg.balanceOf(address(this));\n        bool transferSuccess = false;\n        if (_amount > eggBal) {\n            transferSuccess = egg.transfer(_to, eggBal);\n        } else {\n            transferSuccess = egg.transfer(_to, _amount);\n        }\n        require(transferSuccess, \"safeEggTransfer: transfer failed\");\n    }\n\n    // Update dev address by the previous dev.\n    function dev(address _devaddr) public {\n        require(msg.sender == devaddr, \"dev: wut?\");\n        devaddr = _devaddr;\n        emit SetDevAddress(msg.sender, _devaddr);\n    }\n\n    function setFeeAddress(address _feeAddress) public {\n        require(msg.sender == feeAddress, \"setFeeAddress: FORBIDDEN\");\n        feeAddress = _feeAddress;\n        emit SetFeeAddress(msg.sender, _feeAddress);\n    }\n\n    //Pancake has to add hidden dummy pools inorder to alter the emission, here we make it simple and transparent to all.\n    function updateEmissionRate(uint256 _eggPerBlock) public {\n        require(msg.sender == devaddr,\"owner function\");\n        massUpdatePools();\n        eggPerBlock = _eggPerBlock;\n        emit UpdateEmissionRate(msg.sender, _eggPerBlock);\n    }\n}\n",
  "sourcePath": "/Users/ok/Desktop/Projects/turkey-finance/contracts/MasterChefV2.sol",
  "compiler": {
    "name": "solc",
    "version": "0.6.12+commit.27d51765.Emscripten.clang"
  },
  "schemaVersion": "3.3.4",
  "updatedAt": "2021-03-29T11:17:10.274Z",
  "networkType": "ethereum",
  "devdoc": {
    "kind": "dev",
    "methods": {},
    "version": 1
  },
  "userdoc": {
    "kind": "user",
    "methods": {},
    "version": 1
  }
}